:100B3400C100C102C106C103C104C101C105013222
:100B440000012A01012600022300000130010235C0
:100B54000000022B000002370000012DFC012E00D2
:100B64000128F001290002330000013100012700AF
:0D0B740002390000012F0001250001221EA2
:100C380075B20D75800490E600E054E74410F0D2D8
:100C4800AAD28A90E61074A0F090E611F090E6120D
:100C580074DBF090E6137450F090E6147452F09040
:100C6800E6157402F000000090E60B14F000000096
:100C780090E6047480F00000007402F00000007434
:100C880004F00000007406F00000007408F0000092
:100C980000E4F000000090E6187405F000000090F1
:100CA800E61B7401F000000090E63074C3F0000009
:100CB8000090E63174FCF000000090E68D7440F07E
:100CC80000000090E69D7480F0120D0043AF019083
:100CD800E65F74FFF090E65EE04418F090E605E009
:100CE80054FDF0D207E4F532C20090E668E0440310
:080CF800F05391BF43E8042210
:1000560020060201FBC206D3E5349400E533940082
:10006600500201F485289A85299B7AE779C07EE7B4
:100076007FC074E7F59D74C0F59EE5349420E533A2
:10008600940050058534318003753120E4F518F568
:1000960019AF317E00C3E5199FE5189E501A90E608
:1000A6007BE090E67CF090E67BE090E67CF005193C
:1000B600E5197002051880D9859A28859B29C3E51C
:1000C600349FF534E5339EF5334534701700000050
:1000D60090E6047480F00000007402F0000000E472
:1000E600F012121AE53125E090E68FF0800790E6CF
:1000F6005EE054FBF02000024132C200E5326002AD
:1001060021C390E780E0FEA3E07C002400FFEC3EE4
:10011600FEEF64AA7003EE64AA600221B800000034
:1001260090E6047408F075320190E782E02403F546
:100136002CE433F52BF537852C387AE779807EE782
:100146007F8074E7F59A7480F59B7AFC79007EFCD3
:100156007F0074FCF59D7400F59EE4F518F5199082
:10016600E68DE0FFC3E5199FE5189400501290E66E
:100176007BE090E67CF00519E5197002051880DF32
:1001860090E68DE0FFC313FFC3E52C9FF52CE52B0E
:100196009400F52BD3E52C9400E52B94005005D262
:1001A60002E4F532859D2D859E2E90E68D7440F0F5
:1001B600807A00000090E68D7440F0806F7AE779CF
:1001C600807EE77F8074E7F59A7480F59B852D9D88
:1001D600852E9EE4F518F51990E68DE0FFC3E51926
:1001E6009FE5189400501290E67BE090E67CF005BF
:1001F60019E5197002051880DF90E68DE0FFC3133C
:10020600FFC3E52C9FF52CE52B9400F52BD3E52CAD
:100216009400E52B94005005D202E4F532859D2D1D
:10022600859E2E00000090E68D7440F0E52A14604D
:100236003814603F147002A14B147002A18124048B
:100246006002A1A1300205120786A1A490E6A3E0F0
:1002560030E31190E6047480F00000007402F000B0
:100266000000E4F012121AA1A4200202A1A41207AF
:1002760086A1A4300307C2031212F2A1A42004022D
:10028600A1A4C20490F003E0F5266401601AE526F5
:10029600641B6014E5266416600EE5266404600897
:1002A600E526640C60028187753001E526640160ED
:1002B60002811690E680E030E70281167403253A43
:1002C600F58274F03539F583E0F526640170026134
:1002D600B800000090E650E054FBF090E6F574FF9D
:1002E600F07402253AF58274F03539F583E024037B
:1002F600F534E433F5337400253AF58274F0353974
:10030600F59A7400253AF58274F03539E582F59B45
:100316007AE779C07EE77FC074E7F59D74C0F59EE5
:10032600C3E5349420E533940050058534318003C9
:10033600753120E4F518F519AF317E00C3E5199F34
:10034600E5189E501A90E67BE090E67CF090E67BFE
:10035600E090E67CF00519E5197002051880D9854C
:100366009A28859B29C3E5349FF534E5339EF533FA
:1003760090E65F7404F090E65EE04404F00000004E
:10038600E53125E090E68FF0000000E53990E69033
:10039600F0000000E53A90E691F090E6A3E030E345
:1003A6000512000E800312121AE4F527F539F53A04
:1003B600A1A4E5276402703E00000090E650E054D8
:1003C600FBF090E6F574FFF0E4F527F539F53A0011
:1003D600000090E6ABE090E690F000000090E6ACFE
:1003E600E090E691F090E6A3E030E30512000EA15E
:1003F600A412121AA1A490E6ABE0FE90E6ACE07C53
:10040600002400F53AEC3EF53905275380FBA1A4FC
:1004160000000090E650E054FBF090E6F574FFF023
:1004260090F002E0752300F524F44523701D90F04A
:1004360007E07F00FE90F006E07C002400FFEC3E23
:10044600CF2405F524E43FF523800B74032524F51A
:1004560024E43523F523000000E52425E0E52333D5
:1004660090E690F0000000AF24EF25E090E691F0D2
:1004760090E6A3E030E30512000EA1A412121AA121
:10048600A400000090E650E054FBF090E6F574FFFF
:10049600F0E4F53090F002E02403F534E433F5336C
:1004A6007AF079007EF07F0074F0F59A7400F59B7F
:1004B6007AE779C07EE77FC074E7F59D74C0F59E44
:1004C600C3E5349420E53394005005853431800328
:1004D600753120E4F518F519AF317E00C3E5199F93
:1004E600E5189E501A90E67BE090E67CF090E67B5D
:1004F600E090E67CF00519E5197002051880D985AB
:100506009A28859B29C3E5349FF534E5339EF53358
:100516004534701700000090E6047480F000000077
:100526007402F0000000E4F012121A90E65F740400
:10053600F090E65EE04404F0000000E53125E0902E
:10054600E68FF08059300304C203805230044F0016
:10055600000090E650E054FBF090E6F574FFF0C220
:100566000400000090E6487402F090E6A3E030E351
:100576000512000E802812121A802330052090E6FC
:10058600A3E030E30512000E800312121A000000E9
:1005960090E660E054FEF0C205800312000E3001C2
:1005A6002CC201758AC0758C63E522B40F06538090
:1005B600F7152222E522701343800875221EE525D1
:0D05C600B40104E4F52522120003221522E1
:0105D3002205
:04000E00E4F52A22C9
:10121A001211DE00000090E6617402F000000090F6
:0A122A00E660E04402F0752A01229C
:1011BD0000000090E660E054FDF000000090E65164
:1011CD007404F000000090E650E04404F0752A022B
:0111DD0022EF
:0412F200752A032234
:1007860000000090E660E054FDF090E6F574FFF09E
:10079600000000E53825E0E5373390E69CF00000E0
:1007A60000AD38ED25E090E69DF0000000E53790BD
:1007B600E6D0F0000000ED90E6D1F000000075BB39
:1007C6000300000090E6617401F000000090E6600E
:0A07D600E04401F0752A04C202227B
:10119B005380FE4380045380F790E6F574FFF09084
:1011AB00E60174C8F0E4F590F5B075B5FF75B3FFC3
:0211BB00D3223D
:1012C1004380015380FB90E60174EEF012121AD3B1
:0112D10022FA
:0A00360012004643800112000E2262
:1011DE005380FB00000090E6D0740BF000000090EE
:1011EE00E6D174FAF0E5BB30E7FB00000075BB04F6
:0111FE0022CE
:0A00460043800490E6F574FFF022F9
:10124D0020A911D2A9758AC0758C635389FC438975
:08125D000143881075250122F0
:06000300C2A95388EF22A0
:10126500C0E0C083C082D2085391EF90E65D74015F
:08127500F0D082D083D0E032FA
:10129500C0E0C083C0825391EF90E65D7404F0D046
:0612A50082D083D0E0328C
:1012AB00C0E0C083C0825391EF90E65D7402F0D032
:0612BB0082D083D0E03276
:10108E00C0E0C083C08285433F8544408540828551
:10109E003F83A37402F0853B41853C4285428285A5
:1010AE004183A37407F05391EF90E65D7410F0D076
:0610BE0082D083D0E03275
:10127D00C0E0C083C082D20A5391EF90E65D74083E
:08128D00F0D082D083D0E032E2
:10105100C0E0C083C08290E680E030E720853B3F5E
:10106100853C40854082853F83A37402F0854341DE
:10107100854442854282854183A37407F05391EFF1
:0D10810090E65D7420F0D082D083D0E03284
:0100090032C4
:01000A0032C3
:0100120032BB
:01003100329C
:10001600C0E0C083C0825391EF90E65F7404F0D2D3
:0B0026000612124DD082D083D0E032D1
:1011FF00C0E0C083C0825391EF90E65F7408F0D2D5
:0B120F000012124DD082D083D0E032DC
:10123400C0E0C083C0825391EF90E65F7410F01257
:09124400124DD082D083D0E032BB
:01003200329B
:01005000327D
:01005100327C
:01005200327B
:0107FE0032C8
:0107FF0032C7
:010FFE0032C0
:010FFF0032BF
:0112FA0032C1
:0112FB0032C0
:0112FC0032BF
:0112FD0032BE
:0112FE0032BD
:0112FF0032BC
:0113000032BA
:1007E000C0E0C083C08200000090E6487402F0D2EE
:0E07F000035391BF75A2FFD082D083D0E032B8
:0113010032B9
:0113020032B8
:0113030032B7
:0113040032B6
:0113050032B5
:0113060032B4
:0113070032B3
:10114B00C0E0C083C08200000090E6907403F00002
:10115B00000090E69174FEF04380045380FB5391A2
:0B116B00BF75A2FFD082D083D0E0321D
:0113080032B2
:0113090032B1
:01130A0032B0
:0912E300D2055391BF75A2FF3240
:10100000C0E0C083C082C0D075D000C005C006C09B
:0110100007D8
:1010110090F000E0FEA3E0FDEEEDFFBEAA08BFAA3E
:10102100051211BD801590E6F574FFF043800400B0
:10103100000090E6047402F01211DE5391BF75A214
:01104100FFAF
:0F104200D007D006D005D0D0D082D083D0E032F6
:100DBC0012010002000000407C0C04000000010243
:100DCC0000010A0600020000004001000902300088
:100DDC0001010080A00904000000000000000904CB
:100DEC000001030000000007058102400000070518
:100DFC00010240000007058201FE030109023000D8
:100E0C0001010080730904000000000000000904C7
:100E1C0000010300000000070581024000000705E7
:100E2C00010240000007058201FE030104030904CE
:100E3C002A0354004D005300200049006E0074003A
:100E4C00650072006E006100740069006F006E0036
:100E5C0061006C002000420056000C034600750037
:080E6C00730062006900000040
:03004300020F00A9
:03005300020F0099
:100F0000021265000212AB000212950002127D006F
:100F100002108E00021051000200090002000A00B7
:100F20000200120002003100020016000211FF0050
:100F30000212340002003200020050000200510090
:100F40000200520002000A000207FE000207FF0032
:100F5000020FFE00020FFF000212FA000212FB0055
:100F60000212FC0002000A0002000A0002000A004D
:100F70000212FD000212FE000212FF000213000026
:100F80000207E00002130100021302000213030033
:100F900002130400021305000213060002130700E7
:100FA00002114B00021308000213090002130A0089
:080FB0000212E3000210000030
:1008000090E6B8E0546060026125A3E07002210A1E
:1008100014700221E524FE7002419424FB70020151
:10082000F214700201E714700201B414700201CCDA
:1008300024056002611C90E6BBE024FE602A14607F
:100840004324FD601514602E2406705FE53D90E69C
:10085000B3F0E53E90E6B4F0612CE54590E6B3F0E8
:10086000E54690E6B4F0612CE53F90E6B3F0E54054
:1008700090E6B4F0612CE54190E6B3F0E54290E6F5
:10088000B4F0612C90E6BAE0FF12111FAA06A90786
:100890007B01EA49600CEE90E6B3F0EF90E6B4F02D
:1008A000612C90E6A0E04401F0612C90E6A0E044C9
:1008B00001F0612C90E740E51AF0000000E490E6BA
:1008C0008AF000000090E68B04F0612C90E68374BF
:1008D00001F07421F07411F07431F090E6BAE0F593
:1008E0001A43800800612C90E6BAE0F51B1200362E
:1008F000612C90E740E51BF0000000E490E68AF0F0
:1009000000000090E68B04F0612C90E6B8E0247FB4
:10091000602914604D2402600221DCA207E433FF49
:1009200025E090E740F0E4A3F000000090E68AF0B4
:1009300000000090E68B7402F0612C90E6BCE07041
:100940001890E740F0A3F000000090E68AF0000065
:100950000090E68B7402F0612C90E6A0E04401F078
:10096000612C90E6BCE0700C90E6A0E0540190E7AA
:1009700040F08051E51B6401704290E6BCE0B40198
:100980000C90E6A1E0540190E740F0803890E6BC7E
:10099000E0B4810C90E6A2E0540190E740F080259D
:1009A00090E6BCE0B4820C90E6A3E0540190E740EE
:1009B000F0801290E6A0E04401F0612C90E6A0E007
:1009C0004401F0612CE490E741F000000090E68AD9
:1009D000F000000090E68B7402F0612C90E6A0E03D
:1009E0004401F0612C90E6B8E024FE601A24026015
:1009F00002418B90E6BAE0B40104C207612C90E694
:100A0000A0E04401F0612C90E6BCE07002612CE5AE
:100A10001B6401706D90E6BCE06401702290E6A159
:100A2000E054FEF090E6BCE05480FF131313541F13
:100A3000FFE0540F2F90E683F0E04420F0612C900B
:100A4000E6BCE06481702290E6A2E054FEF090E6FD
:100A5000BCE05480FF131313541FFFE0540F2F907A
:100A6000E683F0E04420F0612C90E6BCE0B482091B
:100A700090E6A3E054FEF0612C90E6A0E04401F083
:100A8000612C90E6A0E04401F0612C90E6A0E044E7
:100A900001F0612C90E6B8E024FE6020240270731F
:100AA00090E6BAE0B40104D207612C90E6BAE064A3
:100AB00002607990E6A0E04401F0807090E6BCE02E
:100AC000700990E6A0E04401F08061E51B640170CC
:100AD0003990E6BCE0B4010990E6A1E04401F08061
:100AE0004B90E6BCE0B4810990E6A2E04401F080BE
:100AF0003B90E6BCE0B4820990E6A3E04401F080BC
:100B00002B90E6A0E04401F0802290E6A0E04401B2
:100B1000F0801990E6A0E04401F0801090E6A0E09B
:100B20004401F0800790E6A0E04401F090E6A0E0E8
:030B30004480F00E
:010B3300229F
:030013000212ECEA
:0612EC00438004D204322D
:03000B00020040B0
:03004000D20132B8
:030033000212F6C0
:0412F60053D8EF32A8
:100B81006080E0000801013F010101070100020549
:100B9100000000000301010303030303090000092E
:100BA1000000003F08013F010101010701020500AA
:100BB100000000000302030303030303000000001D
:100BC1000000003F0802013F010101070100021579
:100BD10010101000030101030303030309000009BE
:100BE1000000003F08013F0101010107010205006A
:100BF10000000000030203030303030300000000DD
:100C01000000003F6024E0870000000000000000B9
:100C110000000000000000000000000000000000D3
:100C210000000000000000000000000047E080E03C
:060C3100100003EE4E006E
:100D000090E60174EEF090E6F574FFF090E080E07C
:100D100090E6F3F090E081E090E6C3F090E082E0AE
:100D200090E6C1F090E083E090E6C2F090E085E0CC
:100D300090E6C0F090E086E090E6F4F075AF0774BE
:100D4000E0F59A7400F59B759DE4E4F59EFF90E64E
:100D50007BE090E67CF00FBF80F490E67174FFF0CA
:100D6000F5B490E672E04480F043B680000000E401
:100D700090E6C4F000000090E6C5F090E087E090B7
:100D8000E6C6F090E088E090E6C7F090E089E09059
:100D9000E6C8F090E08AE090E6C9F090E08BE09041
:100DA000E6CAF090E08CE090E6CBF090E08DE09029
:0B0DB000E6CCF090E08EE090E6CDF085
:010DBB002215
:1005D400E4F513F512F511F510C20AC207C209C2F7
:1005E40008120C387E0D7FBC8E3D8F3E75450D750F
:1005F40046CE753B0D753CD875430E75440875475A
:100604000E754838EE54E07002E11F75140075153C
:10061400808E168F17C374729FFF740E9ECF2402B0
:10062400CF3400FEE48F0F8E0EF50DF50CF50BF5AF
:100634000AF509F508AF0FAE0EAD0DAC0CAB0BAA65
:100644000AA909A808C31212D2502AE515250BF5E8
:1006540082E514350AF58374CDF0E4FAF9F8E50B74
:100664002401F50BEA350AF50AE93509F509E835F7
:1006740008F50880C0E4F50BF50AF509F508AF0F95
:10068400AE0EAD0DAC0CAB0BAA0AA909A808C31297
:1006940012D25035AE0AAF0BE5172FF582E5163EA0
:1006A400F583E0FDE5152FF582E5143EF583EDF0C5
:1006B400E4FAF9F8EF2401F50BEA3EF50AE9350905
:1006C400F509E83508F50880B585143D85153E74AF
:1006D400BC2480FF740D34FFFEC3E5469FF546E558
:1006E400459EF545C3E5409FF540E53F9EF53FC374
:1006F400E5429FF542E5419EF541C3E53C9FF53C4B
:10070400E53B9EF53BC3E5449FF544E5439EF54335
:10071400C3E5489FF548E5479EF547D2E843D8200E
:1007240090E668E04409F090E65CE0443DF0D2AF26
:1007340090E680E020E105D20B1210C490E680E040
:1007440054F7F0538EF8C20A300805120800C208A4
:10075400300A2912119B5024C20A1211762007165E
:1007640090E682E030E704E020E1EF90E682E030BA
:10077400E604E020E0E41210F31212C112005680E5
:01078400C7AD
:010785002251
:1010F30090E682E030E004E020E60B90E682E03008
:10110300E119E030E71590E680E04401F07F147EBA
:0C11130000120FB890E680E054FEF022BD
:1011760090E682E044C0F090E681F04387010000EB
:041186000000002243
:1010C400300B0990E680E0440AF0800790E680E067
:1010D4004408F07FDC7E05120FB890E65D74FFF0E3
:0F10E40090E65FF05391EF90E680E054F7F02232
:02111F00A9071E
:10112100AE47AF488F828E83A3E064037017AD0191
:1011310019ED7001228F828E83E07C002FFDEC3E41
:09114100FEAF0580DF7E007F0097
:01114A002282
:100FB8008E188F1990E600E054187012E519240174
:100FC800FFE43518C313F518EF13F519801590E6EB
:100FD80000E05418FFBF100BE51925E0F519E518D6
:100FE80033F518E5191519AE18700215184E600575
:060FF80012118A80EE22B6
:10118A007400F58690FDA57C05A3E582458370F978
:01119A002232
:03000000020E7479
:0C0E7400787FE4F6D8FD758148020EBBC3
:1012D200EB9FF5F0EA9E42F0E99D42F0E89C45F072
:0112E20022E9
:100E80000205D4E493A3F8E493A34003F68001F2AF
:100E900008DFF48029E493A3F85407240CC8C33373
:100EA000C4540F4420C8834004F456800146F6DF42
:100EB000E4800B0102040810204080900B34E47E93
:100EC000019360BCA3FF543F30E509541FFEE49337
:100ED000A360010ECF54C025E060A840B8E493A3FE
:100EE000FAE493A3F8E493A3C8C582C8CAC583CA29
:100EF000F0A3C8C582C8CAC583CADFE9DEE780BEE1
:010C370000BC
:00000001FF
